{
  "_format": "hh-sol-artifact-1",
  "contractName": "AccessControl",
  "sourceName": "contracts/AccessControl.sol",
  "abi": [
    {
      "inputs": [],
      "stateMutability": "nonpayable",
      "type": "constructor"
    },
    {
      "anonymous": false,
      "inputs": [
        {
          "indexed": true,
          "internalType": "string",
          "name": "role",
          "type": "string"
        },
        {
          "indexed": true,
          "internalType": "address",
          "name": "account",
          "type": "address"
        },
        {
          "indexed": true,
          "internalType": "address",
          "name": "sender",
          "type": "address"
        }
      ],
      "name": "RoleGranted",
      "type": "event"
    },
    {
      "anonymous": false,
      "inputs": [
        {
          "indexed": true,
          "internalType": "string",
          "name": "role",
          "type": "string"
        },
        {
          "indexed": true,
          "internalType": "address",
          "name": "account",
          "type": "address"
        },
        {
          "indexed": true,
          "internalType": "address",
          "name": "sender",
          "type": "address"
        }
      ],
      "name": "RoleRevoked",
      "type": "event"
    },
    {
      "inputs": [],
      "name": "DEFAULT_ADMIN_ROLE",
      "outputs": [
        {
          "internalType": "bytes32",
          "name": "",
          "type": "bytes32"
        }
      ],
      "stateMutability": "view",
      "type": "function"
    },
    {
      "inputs": [
        {
          "internalType": "string",
          "name": "roleName",
          "type": "string"
        },
        {
          "internalType": "address",
          "name": "account",
          "type": "address"
        }
      ],
      "name": "grantRole",
      "outputs": [],
      "stateMutability": "nonpayable",
      "type": "function"
    },
    {
      "inputs": [
        {
          "internalType": "string",
          "name": "roleName",
          "type": "string"
        },
        {
          "internalType": "address",
          "name": "account",
          "type": "address"
        }
      ],
      "name": "hasRole",
      "outputs": [
        {
          "internalType": "bool",
          "name": "",
          "type": "bool"
        }
      ],
      "stateMutability": "view",
      "type": "function"
    },
    {
      "inputs": [
        {
          "internalType": "string",
          "name": "roleName",
          "type": "string"
        },
        {
          "internalType": "address",
          "name": "account",
          "type": "address"
        }
      ],
      "name": "revokeRole",
      "outputs": [],
      "stateMutability": "nonpayable",
      "type": "function"
    },
    {
      "inputs": [
        {
          "internalType": "string",
          "name": "roleName",
          "type": "string"
        }
      ],
      "name": "setRole",
      "outputs": [],
      "stateMutability": "nonpayable",
      "type": "function"
    },
    {
      "stateMutability": "payable",
      "type": "receive"
    }
  ],
  "bytecode": "0x608060405234801561001057600080fd5b503360009081527fa6eef7e35abe7026729641147f7915573c7e97b47efa546f5f6e3230263bcb496020526040808220805460ff19166001179055518190610070907144454641554c545f41444d494e5f524f4c4560701b815260120190565b90815260405190819003602001812091909155339081906100a9907144454641554c545f41444d494e5f524f4c4560701b815260120190565b604051908190038120907fe0ca4f6d52d59033a91ab89e93c98f9acada14e0086d8b1038284f42e6d5325790600090a4610675806100e86000396000f3fe60806040526004361061004e5760003560e01c80636c9cd0971461005a578063731f21a01461008f5780638e0cfbc2146100b1578063a217fddf146100d1578063c19ae2ed146100f457600080fd5b3661005557005b600080fd5b34801561006657600080fd5b5061007a6100753660046104df565b610114565b60405190151581526020015b60405180910390f35b34801561009b57600080fd5b506100af6100aa3660046104df565b610165565b005b3480156100bd57600080fd5b506100af6100cc36600461053d565b6102ab565b3480156100dd57600080fd5b506100e6600081565b604051908152602001610086565b34801561010057600080fd5b506100af61010f3660046104df565b6102fb565b600080600084604051610127919061057a565b90815260408051918290036020908101909220546000908152600183528181206001600160a01b038716825290925290205460ff1691505092915050565b6040518060400160405280601281526020017144454641554c545f41444d494e5f524f4c4560701b815250600080826040516101a1919061057a565b90815260408051602092819003830190205460008181526001845282812033825290935291205490915060ff166101f35760405162461bcd60e51b81526004016101ea906105a9565b60405180910390fd5b6001600160a01b0383166102195760405162461bcd60e51b81526004016101ea906105f5565b6000808560405161022a919061057a565b908152604080519182900360209081018320546000818152600183528381206001600160a01b038a16808352935292909220805460ff19169055909250339161027490889061057a565b604051908190038120907ff3a2b91552b535c273a48d8b7453c8b0b287e20e51d74121eb50d975dbaa506d90600090a45050505050565b6000816040516020016102be919061057a565b604051602081830303815290604052805190602001209050806000836040516102e7919061057a565b908152604051908190036020019020555050565b6040518060400160405280601281526020017144454641554c545f41444d494e5f524f4c4560701b81525060008082604051610337919061057a565b90815260408051602092819003830190205460008181526001845282812033825290935291205490915060ff166103805760405162461bcd60e51b81526004016101ea906105a9565b6001600160a01b0383166103a65760405162461bcd60e51b81526004016101ea906105f5565b600080856040516103b7919061057a565b90815260408051918290036020908101832054600081815260018084528482206001600160a01b038b168084529452939020805460ff1916909317909255909250339161040590889061057a565b604051908190038120907fe0ca4f6d52d59033a91ab89e93c98f9acada14e0086d8b1038284f42e6d5325790600090a45050505050565b634e487b7160e01b600052604160045260246000fd5b600082601f83011261046357600080fd5b813567ffffffffffffffff8082111561047e5761047e61043c565b604051601f8301601f19908116603f011681019082821181831017156104a6576104a661043c565b816040528381528660208588010111156104bf57600080fd5b836020870160208301376000602085830101528094505050505092915050565b600080604083850312156104f257600080fd5b823567ffffffffffffffff81111561050957600080fd5b61051585828601610452565b92505060208301356001600160a01b038116811461053257600080fd5b809150509250929050565b60006020828403121561054f57600080fd5b813567ffffffffffffffff81111561056657600080fd5b61057284828501610452565b949350505050565b6000825160005b8181101561059b5760208186018101518583015201610581565b506000920191825250919050565b6020808252602c908201527f416363657373436f6e74726f6c3a2073656e64657220646f6573206e6f74206860408201526b6176652074686520726f6c6560a01b606082015260800190565b6020808252602a908201527f416363657373436f6e74726f6c3a206163636f756e7420697320746865207a65604082015269726f206164647265737360b01b60608201526080019056fea2646970667358221220e2becf925af2c4904cfbdb503484a1d01f89ff500e18e83e5f0a09096b9861aa64736f6c63430008140033",
  "linkReferences": {},
  "deployedLinkReferences": {}
}