{
  "_format": "hh-sol-artifact-1",
  "contractName": "DiamondTraceabilityNFT",
  "sourceName": "contracts/DiamondTraceabilityNFT.sol",
  "abi": [
    {
      "inputs": [
        {
          "internalType": "address payable",
          "name": "accessControlAddress",
          "type": "address"
        }
      ],
      "stateMutability": "payable",
      "type": "constructor"
    },
    {
      "anonymous": false,
      "inputs": [
        {
          "indexed": false,
          "internalType": "uint256",
          "name": "uniqueId",
          "type": "uint256"
        },
        {
          "indexed": false,
          "internalType": "address",
          "name": "issuedBy",
          "type": "address"
        },
        {
          "indexed": false,
          "internalType": "bytes32",
          "name": "certificateId",
          "type": "bytes32"
        }
      ],
      "name": "CertificateIssued",
      "type": "event"
    },
    {
      "anonymous": false,
      "inputs": [
        {
          "indexed": false,
          "internalType": "uint256",
          "name": "uniqueId",
          "type": "uint256"
        },
        {
          "indexed": false,
          "internalType": "address",
          "name": "minedBy",
          "type": "address"
        },
        {
          "indexed": false,
          "internalType": "uint256",
          "name": "caratWeight",
          "type": "uint256"
        },
        {
          "indexed": false,
          "internalType": "string",
          "name": "origin",
          "type": "string"
        },
        {
          "indexed": false,
          "internalType": "string",
          "name": "color",
          "type": "string"
        },
        {
          "indexed": false,
          "internalType": "string",
          "name": "clarity",
          "type": "string"
        }
      ],
      "name": "DiamondMined",
      "type": "event"
    },
    {
      "anonymous": false,
      "inputs": [
        {
          "indexed": false,
          "internalType": "uint256",
          "name": "uniqueId",
          "type": "uint256"
        },
        {
          "indexed": false,
          "internalType": "address",
          "name": "buyer",
          "type": "address"
        },
        {
          "indexed": false,
          "internalType": "uint256",
          "name": "price",
          "type": "uint256"
        }
      ],
      "name": "DiamondSold",
      "type": "event"
    },
    {
      "anonymous": false,
      "inputs": [
        {
          "indexed": false,
          "internalType": "uint256",
          "name": "uniqueId",
          "type": "uint256"
        },
        {
          "indexed": false,
          "internalType": "uint256",
          "name": "price",
          "type": "uint256"
        }
      ],
      "name": "PriceUpdated",
      "type": "event"
    },
    {
      "anonymous": false,
      "inputs": [
        {
          "indexed": false,
          "internalType": "uint256",
          "name": "uniqueId",
          "type": "uint256"
        }
      ],
      "name": "TransactionCancelled",
      "type": "event"
    },
    {
      "inputs": [],
      "name": "accessControl",
      "outputs": [
        {
          "internalType": "contract AccessControl",
          "name": "",
          "type": "address"
        }
      ],
      "stateMutability": "view",
      "type": "function"
    },
    {
      "inputs": [
        {
          "internalType": "uint256",
          "name": "uniqueId",
          "type": "uint256"
        }
      ],
      "name": "buyDiamond",
      "outputs": [],
      "stateMutability": "payable",
      "type": "function"
    },
    {
      "inputs": [
        {
          "internalType": "uint256",
          "name": "uniqueId",
          "type": "uint256"
        }
      ],
      "name": "cancelTransaction",
      "outputs": [],
      "stateMutability": "nonpayable",
      "type": "function"
    },
    {
      "inputs": [
        {
          "internalType": "uint256",
          "name": "uniqueId",
          "type": "uint256"
        }
      ],
      "name": "getDiamondCertificate",
      "outputs": [
        {
          "components": [
            {
              "internalType": "uint256",
              "name": "uniqueId",
              "type": "uint256"
            },
            {
              "internalType": "string",
              "name": "gradingReport",
              "type": "string"
            },
            {
              "internalType": "address",
              "name": "issuedBy",
              "type": "address"
            },
            {
              "internalType": "bytes32",
              "name": "certificateId",
              "type": "bytes32"
            }
          ],
          "internalType": "struct IDiamondTraceabilityNFT.DiamondCertificate",
          "name": "",
          "type": "tuple"
        }
      ],
      "stateMutability": "view",
      "type": "function"
    },
    {
      "inputs": [
        {
          "internalType": "uint256",
          "name": "uniqueId",
          "type": "uint256"
        }
      ],
      "name": "getDiamondDetails",
      "outputs": [
        {
          "components": [
            {
              "internalType": "uint256",
              "name": "uniqueId",
              "type": "uint256"
            },
            {
              "internalType": "uint256",
              "name": "caratWeight",
              "type": "uint256"
            },
            {
              "internalType": "string",
              "name": "origin",
              "type": "string"
            },
            {
              "internalType": "string",
              "name": "color",
              "type": "string"
            },
            {
              "internalType": "string",
              "name": "clarity",
              "type": "string"
            },
            {
              "internalType": "enum IDiamondTraceabilityNFT.DiamondStatus",
              "name": "status",
              "type": "uint8"
            },
            {
              "internalType": "address",
              "name": "currentHolder",
              "type": "address"
            },
            {
              "internalType": "uint256",
              "name": "price",
              "type": "uint256"
            }
          ],
          "internalType": "struct IDiamondTraceabilityNFT.DiamondDetails",
          "name": "",
          "type": "tuple"
        }
      ],
      "stateMutability": "view",
      "type": "function"
    },
    {
      "inputs": [
        {
          "internalType": "uint256",
          "name": "uniqueId",
          "type": "uint256"
        }
      ],
      "name": "getDiamondLifecycle",
      "outputs": [
        {
          "components": [
            {
              "internalType": "string",
              "name": "operationName",
              "type": "string"
            },
            {
              "internalType": "string",
              "name": "remarks",
              "type": "string"
            },
            {
              "internalType": "string",
              "name": "date",
              "type": "string"
            }
          ],
          "internalType": "struct DiamondTraceabilityNFT.DiamondOperation[]",
          "name": "",
          "type": "tuple[]"
        }
      ],
      "stateMutability": "view",
      "type": "function"
    },
    {
      "inputs": [
        {
          "internalType": "uint256",
          "name": "uniqueId",
          "type": "uint256"
        }
      ],
      "name": "getDiamondPrice",
      "outputs": [
        {
          "internalType": "uint256",
          "name": "",
          "type": "uint256"
        }
      ],
      "stateMutability": "view",
      "type": "function"
    },
    {
      "inputs": [
        {
          "internalType": "uint256",
          "name": "uniqueId",
          "type": "uint256"
        },
        {
          "internalType": "string",
          "name": "manufacturer",
          "type": "string"
        }
      ],
      "name": "issueCertificate",
      "outputs": [
        {
          "components": [
            {
              "internalType": "uint256",
              "name": "uniqueId",
              "type": "uint256"
            },
            {
              "internalType": "uint256",
              "name": "caratWeight",
              "type": "uint256"
            },
            {
              "internalType": "string",
              "name": "color",
              "type": "string"
            },
            {
              "internalType": "string",
              "name": "clarity",
              "type": "string"
            },
            {
              "internalType": "string",
              "name": "cut",
              "type": "string"
            },
            {
              "internalType": "string",
              "name": "origin",
              "type": "string"
            },
            {
              "internalType": "string",
              "name": "manufacturer",
              "type": "string"
            },
            {
              "internalType": "bytes32",
              "name": "certificateId",
              "type": "bytes32"
            }
          ],
          "internalType": "struct IDiamondTraceabilityNFT.ExtendedDiamondCertificate",
          "name": "",
          "type": "tuple"
        }
      ],
      "stateMutability": "nonpayable",
      "type": "function"
    },
    {
      "inputs": [
        {
          "internalType": "uint256",
          "name": "caratWeight",
          "type": "uint256"
        },
        {
          "internalType": "string",
          "name": "origin",
          "type": "string"
        },
        {
          "internalType": "string",
          "name": "color",
          "type": "string"
        },
        {
          "internalType": "string",
          "name": "clarity",
          "type": "string"
        },
        {
          "internalType": "address",
          "name": "nextHolder",
          "type": "address"
        }
      ],
      "name": "mineDiamond",
      "outputs": [
        {
          "internalType": "uint256",
          "name": "",
          "type": "uint256"
        }
      ],
      "stateMutability": "nonpayable",
      "type": "function"
    },
    {
      "inputs": [
        {
          "internalType": "uint256",
          "name": "uniqueId",
          "type": "uint256"
        },
        {
          "internalType": "address",
          "name": "buyer",
          "type": "address"
        }
      ],
      "name": "sellDiamond",
      "outputs": [],
      "stateMutability": "nonpayable",
      "type": "function"
    },
    {
      "inputs": [
        {
          "internalType": "uint256",
          "name": "uniqueId",
          "type": "uint256"
        },
        {
          "internalType": "uint256",
          "name": "price",
          "type": "uint256"
        }
      ],
      "name": "setForSale",
      "outputs": [],
      "stateMutability": "nonpayable",
      "type": "function"
    },
    {
      "inputs": [
        {
          "internalType": "uint256",
          "name": "uniqueId",
          "type": "uint256"
        },
        {
          "internalType": "enum IDiamondTraceabilityNFT.DiamondStatus",
          "name": "newStatus",
          "type": "uint8"
        },
        {
          "internalType": "address",
          "name": "newHolder",
          "type": "address"
        },
        {
          "internalType": "string",
          "name": "operationName",
          "type": "string"
        },
        {
          "internalType": "string",
          "name": "remarks",
          "type": "string"
        }
      ],
      "name": "updateDiamondStatus",
      "outputs": [],
      "stateMutability": "nonpayable",
      "type": "function"
    },
    {
      "inputs": [
        {
          "internalType": "uint256",
          "name": "uniqueId",
          "type": "uint256"
        },
        {
          "internalType": "uint256",
          "name": "price",
          "type": "uint256"
        }
      ],
      "name": "updatePrice",
      "outputs": [],
      "stateMutability": "nonpayable",
      "type": "function"
    },
    {
      "inputs": [
        {
          "internalType": "uint256",
          "name": "uniqueId",
          "type": "uint256"
        }
      ],
      "name": "verifyOwnership",
      "outputs": [
        {
          "internalType": "address",
          "name": "",
          "type": "address"
        }
      ],
      "stateMutability": "view",
      "type": "function"
    },
    {
      "inputs": [
        {
          "internalType": "uint256",
          "name": "uniqueId",
          "type": "uint256"
        },
        {
          "internalType": "address",
          "name": "buyer",
          "type": "address"
        }
      ],
      "name": "verifyPurchase",
      "outputs": [
        {
          "internalType": "bool",
          "name": "",
          "type": "bool"
        }
      ],
      "stateMutability": "view",
      "type": "function"
    },
    {
      "stateMutability": "payable",
      "type": "receive"
    }
  ],
  "bytecode": "0x6080604052600160045560405162002c1c38038062002c1c8339810160408190526200002b9162000229565b600380546001600160a01b0319166001600160a01b03831617905560408051808201909152600b81526a4355545445525f524f4c4560a81b6020808301919091526001600052600590527f1471eb6eb2c5e789fc3de43f8ce62938c7d1836ec861730447e2ada8fd81017b90620000a3908262000300565b5060408051808201909152600b81526a4752414445525f524f4c4560a81b6020808301919091526002600052600590527f89832631fb3c3307a103ba2c84ab569c64d6182a18893dcd163f0f1c2090733a9062000101908262000300565b506040805180820190915260118152704d414e5546414354555245525f524f4c4560781b6020808301919091526003600052600590527fa9bc9a3a348c357ba16b37005d7e6b3236198c0e939f4af8c5f19b8deeb8ebc09062000165908262000300565b5060408051808201909152600b81526a53454c4c45525f524f4c4560a81b6020808301919091526004600052600590527f3eec716f11ba9e820c81ca75eb978ffb45831ef8b7a53e5e422c26008e1ca6d590620001c3908262000300565b5060408051808201909152600b81526a53454c4c45525f524f4c4560a81b6020808301919091526005600081905290527f458b30c2d72bfd2c6317304a4594ecbafe5f729d3111b65fdc3a33bd48e5432d9062000221908262000300565b5050620003cc565b6000602082840312156200023c57600080fd5b81516001600160a01b03811681146200025457600080fd5b9392505050565b634e487b7160e01b600052604160045260246000fd5b600181811c908216806200028657607f821691505b602082108103620002a757634e487b7160e01b600052602260045260246000fd5b50919050565b601f821115620002fb57600081815260208120601f850160051c81016020861015620002d65750805b601f850160051c820191505b81811015620002f757828155600101620002e2565b5050505b505050565b81516001600160401b038111156200031c576200031c6200025b565b62000334816200032d845462000271565b84620002ad565b602080601f8311600181146200036c5760008415620003535750858301515b600019600386901b1c1916600185901b178555620002f7565b600085815260208120601f198616915b828110156200039d578886015182559484019460019091019084016200037c565b5085821015620003bc5787850151600019600388901b60f8161c191681555b5050505050600190811b01905550565b61284080620003dc6000396000f3fe6080604052600436106100ec5760003560e01c806357d9a0b61161008a578063a55dce3411610059578063a55dce34146102a3578063de611ee5146102d3578063e741b3cf14610311578063ee367b3e1461033e57600080fd5b806357d9a0b614610216578063633bea151461024357806381f740bd1461026357806382367b2d1461028357600080fd5b806317fcfe22116100c657806317fcfe22146101935780633380c0d8146101b5578063389d9636146101d557806356b0a97d146101e857600080fd5b80630c816de4146100f85780630e065ccd1461012e57806313007d551461015b57600080fd5b366100f357005b600080fd5b34801561010457600080fd5b50610118610113366004611f3f565b61036e565b6040516101259190611fd6565b60405180910390f35b34801561013a57600080fd5b5061014e610149366004612096565b6107e4565b60405161012591906120e7565b34801561016757600080fd5b5060035461017b906001600160a01b031681565b6040516001600160a01b039091168152602001610125565b34801561019f57600080fd5b506101b36101ae366004612194565b610a2f565b005b3480156101c157600080fd5b506101b36101d0366004612096565b610b9f565b6101b36101e3366004612096565b610cc6565b3480156101f457600080fd5b506102086102033660046121d2565b610f4d565b604051908152602001610125565b34801561022257600080fd5b50610236610231366004612096565b611243565b6040516101259190612275565b34801561024f57600080fd5b506101b361025e3660046122c6565b61133f565b34801561026f57600080fd5b506101b361027e3660046122f2565b6114c2565b34801561028f57600080fd5b506101b361029e366004612194565b611772565b3480156102af57600080fd5b506102086102be366004612096565b60009081526020819052604090206006015490565b3480156102df57600080fd5b5061017b6102ee366004612096565b60009081526020819052604090206005015461010090046001600160a01b031690565b34801561031d57600080fd5b5061033161032c366004612096565b6117f6565b6040516101259190612387565b34801561034a57600080fd5b5061035e6103593660046122c6565b611a1e565b6040519015158152602001610125565b6103b960405180610100016040528060008152602001600081526020016060815260200160608152602001606081526020016060815260200160608152602001600080191681525090565b6000838152602081905260409020600360058083015460ff16908111156103e2576103e26120af565b146104345760405162461bcd60e51b815260206004820152601c60248201527f4469616d6f6e64206d757374206265206d616e7566616374757265640000000060448201526064015b60405180910390fd5b60408051602081018690526bffffffffffffffffffffffff193360601b169181019190915242605482015260009060740160408051601f19818403018152828252805160209182012060808401835288845282518084018452600a8152695265706f72742055524960b01b8184015284830190815233858501526060850182905260008a815260019384905293909320845181559251909450908201906104db90826124b1565b50604082810151600283810180546001600160a01b0319166001600160a01b039093169290921790915560609384015160039093019290925560008881526020928352819020815160a08101835260129481019485527110d95c9d1a599a58d85d1948125cdcdd595960721b608082015293845290519092918281019161056491899101612571565b6040516020818303038152906040528152602001610580611c97565b905281546001810183556000928352602090922081519192600302019081906105a990826124b1565b50602082015160018201906105be90826124b1565b50604082015160028201906105d390826124b1565b5050506040518061010001604052808681526020018360010154815260200183600301805461060190612428565b80601f016020809104026020016040519081016040528092919081815260200182805461062d90612428565b801561067a5780601f1061064f5761010080835404028352916020019161067a565b820191906000526020600020905b81548152906001019060200180831161065d57829003601f168201915b5050505050815260200183600401805461069390612428565b80601f01602080910402602001604051908101604052809291908181526020018280546106bf90612428565b801561070c5780601f106106e15761010080835404028352916020019161070c565b820191906000526020600020905b8154815290600101906020018083116106ef57829003601f168201915b5050505050815260200160405180604001604052806009815260200168115e18d95b1b195b9d60ba1b815250815260200183600201805461074c90612428565b80601f016020809104026020016040519081016040528092919081815260200182805461077890612428565b80156107c55780601f1061079a576101008083540402835291602001916107c5565b820191906000526020600020905b8154815290600101906020018083116107a857829003601f168201915b5050505050815260200185815260200182815250925050505b92915050565b6107ec611e46565b60008083815260200190815260200160002060405180610100016040529081600082015481526020016001820154815260200160028201805461082e90612428565b80601f016020809104026020016040519081016040528092919081815260200182805461085a90612428565b80156108a75780601f1061087c576101008083540402835291602001916108a7565b820191906000526020600020905b81548152906001019060200180831161088a57829003601f168201915b505050505081526020016003820180546108c090612428565b80601f01602080910402602001604051908101604052809291908181526020018280546108ec90612428565b80156109395780601f1061090e57610100808354040283529160200191610939565b820191906000526020600020905b81548152906001019060200180831161091c57829003601f168201915b5050505050815260200160048201805461095290612428565b80601f016020809104026020016040519081016040528092919081815260200182805461097e90612428565b80156109cb5780601f106109a0576101008083540402835291602001916109cb565b820191906000526020600020905b8154815290600101906020018083116109ae57829003601f168201915b505050918352505060058281015460209092019160ff16908111156109f2576109f26120af565b6005811115610a0357610a036120af565b8152600582015461010090046001600160a01b0316602082015260069091015460409091015292915050565b604080518082018252600b81526a53454c4c45525f524f4c4560a81b60208201526003549151636c9cd09760e01b815290916001600160a01b031690636c9cd09790610a8190849033906004016125a9565b602060405180830381865afa158015610a9e573d6000803e3d6000fd5b505050506040513d601f19601f82011682018060405250810190610ac291906125d3565b610ade5760405162461bcd60e51b815260040161042b906125fc565b6000838152602081905260409020600581015461010090046001600160a01b03163314610b1d5760405162461bcd60e51b815260040161042b90612633565b600360058083015460ff1690811115610b3857610b386120af565b14610b855760405162461bcd60e51b815260206004820152601a60248201527f4469616d6f6e64206e6f7420726561647920666f722073616c65000000000000604482015260640161042b565b60058101805460ff19166004179055600601919091555050565b600081815260066020526040902060018101546001600160a01b03163314610c095760405162461bcd60e51b815260206004820152601b60248201527f556e617574686f72697a65643a204e6f74207468652062757965720000000000604482015260640161042b565b6001810154600160a01b900460ff1615610c655760405162461bcd60e51b815260206004820181905260248201527f43616e6e6f742063616e63656c20612070616964207472616e73616374696f6e604482015260640161042b565b600082815260066020526040808220918255600190910180546001600160a81b0319169055517f956fb32199d8b882b2039a14e1be35ab14f7a80b9089fc223f14b43937173e6090610cba9084815260200190565b60405180910390a15050565b6000818152602081905260409020600460058083015460ff1690811115610cef57610cef6120af565b14610d365760405162461bcd60e51b81526020600482015260176024820152764469616d6f6e64206973206e6f7420666f722073616c6560481b604482015260640161042b565b6005810154336101009091046001600160a01b031603610d985760405162461bcd60e51b815260206004820152601b60248201527f43616e6e6f742062757920796f7572206f776e206469616d6f6e640000000000604482015260640161042b565b600681015434811115610de45760405162461bcd60e51b8152602060048201526014602482015273125b9cdd59999a58da595b9d081c185e5b595b9d60621b604482015260640161042b565b6040805160608101825282815233602080830191825260018385018181526000898152600690935294822093518455915192909101805493511515600160a01b026001600160a81b03199094166001600160a01b039390931692909217929092179055610e52600a836126a3565b90506000610e6082846126b7565b600585015460405191925061010090046001600160a01b0316906108fc8315029083906000818181858888f19350505050158015610ea2573d6000803e3d6000fd5b506003546040516001600160a01b039091169083156108fc029084906000818181858888f19350505050158015610edd573d6000803e3d6000fd5b50600584810180546001600160a81b03191660ff193361010081029190911691909117909217905560408051878152602081019290925281018490527f6747c1ec2bd86dfa60a8c4de1dc040482d5f8618be034d32c3312515ce165a1f9060600160405180910390a15050505050565b604080518082018252600a8152694d494e45525f524f4c4560b01b60208201526003549151636c9cd09760e01b81526000926001600160a01b031690636c9cd09790610f9f90849033906004016125a9565b602060405180830381865afa158015610fbc573d6000803e3d6000fd5b505050506040513d601f19601f82011682018060405250810190610fe091906125d3565b610ffc5760405162461bcd60e51b815260040161042b906125fc565b600480546000918261100d836126ca565b91905055905060405180610100016040528082815260200189815260200188815260200187815260200186815260200160006005811115611050576110506120af565b81526001600160a01b038616602080830191909152600060409283018190528481528082528290208351815590830151600182015590820151600282019061109890826124b1565b50606082015160038201906110ad90826124b1565b50608082015160048201906110c290826124b1565b5060a08201518160050160006101000a81548160ff021916908360058111156110ed576110ed6120af565b021790555060c08201516005820180546001600160a01b0390921661010002610100600160a81b031990921691909117905560e090910151600691820155600082815260026020908152604091829020825160a08101845260608101948552654d696e696e6760d01b608082015293845282518084018452601781527f4469616d6f6e6420696e697469616c6c79206d696e65640000000000000000008184015291840191909152919081016111a1611c97565b905281546001810183556000928352602090922081519192600302019081906111ca90826124b1565b50602082015160018201906111df90826124b1565b50604082015160028201906111f490826124b1565b5050507f90d3aeb4bfc04c9671ee70d492d44b4ce9141387304ef0e32a275cfb910ca76e81338a8a8a8a604051611230969594939291906126e3565b60405180910390a1979650505050505050565b604080516080810182526000808252606060208301819052928201819052918101919091526000828152600160208181526040928390208351608081019094528054845291820180549184019161129990612428565b80601f01602080910402602001604051908101604052809291908181526020018280546112c590612428565b80156113125780601f106112e757610100808354040283529160200191611312565b820191906000526020600020905b8154815290600101906020018083116112f557829003601f168201915b505050918352505060028201546001600160a01b0316602082015260039091015460409091015292915050565b604080518082018252600b81526a53454c4c45525f524f4c4560a81b60208201526003549151636c9cd09760e01b815290916001600160a01b031690636c9cd0979061139190849033906004016125a9565b602060405180830381865afa1580156113ae573d6000803e3d6000fd5b505050506040513d601f19601f820116820180604052508101906113d291906125d3565b6113ee5760405162461bcd60e51b815260040161042b906125fc565b6000838152602081905260409020600581015461010090046001600160a01b0316331461142d5760405162461bcd60e51b815260040161042b90612633565b600460058083015460ff1690811115611448576114486120af565b1461148f5760405162461bcd60e51b81526020600482015260176024820152764469616d6f6e64206973206e6f7420666f722073616c6560481b604482015260640161042b565b600590810180546001600160a01b03949094166101000260ff19166001600160a81b031990941693909317179091555050565b6000858152602081905260409020600581015461010090046001600160a01b031633146115015760405162461bcd60e51b815260040161042b90612633565b600060056000876005811115611519576115196120af565b600581111561152a5761152a6120af565b8152602001908152602001600020805461154390612428565b80601f016020809104026020016040519081016040528092919081815260200182805461156f90612428565b80156115bc5780601f10611591576101008083540402835291602001916115bc565b820191906000526020600020905b81548152906001019060200180831161159f57829003601f168201915b5050600354604051636c9cd09760e01b81529495506001600160a01b031693636c9cd09793506115f4925085915033906004016125a9565b602060405180830381865afa158015611611573d6000803e3d6000fd5b505050506040513d601f19601f8201168201806040525081019061163591906125d3565b6116985760405162461bcd60e51b815260206004820152602e60248201527f556e617574686f72697a65643a20496e636f727265637420726f6c6520666f7260448201526d207374617475732075706461746560901b606482015260840161042b565b858260050160006101000a81548160ff021916908360058111156116be576116be6120af565b0217905550600582018054610100600160a81b0319166101006001600160a01b038816021790556000878152600260209081526040918290208251606081018452878152918201869052918101611713611c97565b9052815460018101835560009283526020909220815191926003020190819061173c90826124b1565b506020820151600182019061175190826124b1565b506040820151600282019061176690826124b1565b50505050505050505050565b6000828152602081905260409020600581015461010090046001600160a01b031633146117b15760405162461bcd60e51b815260040161042b90612633565b6006810182905560408051848152602081018490527f945c1c4e99aa89f648fbfe3df471b916f719e16d960fcec0737d4d56bd696838910160405180910390a1505050565b606060026000838152602001908152602001600020805480602002602001604051908101604052809291908181526020016000905b82821015611a13578382906000526020600020906003020160405180606001604052908160008201805461185e90612428565b80601f016020809104026020016040519081016040528092919081815260200182805461188a90612428565b80156118d75780601f106118ac576101008083540402835291602001916118d7565b820191906000526020600020905b8154815290600101906020018083116118ba57829003601f168201915b505050505081526020016001820180546118f090612428565b80601f016020809104026020016040519081016040528092919081815260200182805461191c90612428565b80156119695780601f1061193e57610100808354040283529160200191611969565b820191906000526020600020905b81548152906001019060200180831161194c57829003601f168201915b5050505050815260200160028201805461198290612428565b80601f01602080910402602001604051908101604052809291908181526020018280546119ae90612428565b80156119fb5780601f106119d0576101008083540402835291602001916119fb565b820191906000526020600020905b8154815290600101906020018083116119de57829003601f168201915b5050505050815250508152602001906001019061182b565b505050509050919050565b600080600080858152602001908152602001600020604051806101000160405290816000820154815260200160018201548152602001600282018054611a6390612428565b80601f0160208091040260200160405190810160405280929190818152602001828054611a8f90612428565b8015611adc5780601f10611ab157610100808354040283529160200191611adc565b820191906000526020600020905b815481529060010190602001808311611abf57829003601f168201915b50505050508152602001600382018054611af590612428565b80601f0160208091040260200160405190810160405280929190818152602001828054611b2190612428565b8015611b6e5780601f10611b4357610100808354040283529160200191611b6e565b820191906000526020600020905b815481529060010190602001808311611b5157829003601f168201915b50505050508152602001600482018054611b8790612428565b80601f0160208091040260200160405190810160405280929190818152602001828054611bb390612428565b8015611c005780601f10611bd557610100808354040283529160200191611c00565b820191906000526020600020905b815481529060010190602001808311611be357829003601f168201915b505050918352505060058281015460209092019160ff1690811115611c2757611c276120af565b6005811115611c3857611c386120af565b8152600582015461010090046001600160a01b03908116602083015260069092015460409091015260c08201519192508481169116148015611c8f575060058160a001516005811115611c8d57611c8d6120af565b145b949350505050565b6060611cbb611caa6301e13380426126a3565b611cb6906107b2612743565b611d1a565b611ce2600c611ccd62278d00426126a3565b611cd79190612756565b611cb6906001612743565b611cf4601e611ccd62015180426126a3565b604051602001611d069392919061276a565b604051602081830303815290604052905090565b606081600003611d415750506040805180820190915260018152600360fc1b602082015290565b8160005b8115611d6b5780611d55816126ca565b9150611d649050600a836126a3565b9150611d45565b60008167ffffffffffffffff811115611d8657611d86611e9c565b6040519080825280601f01601f191660200182016040528015611db0576020820181803683370190505b509050815b8515611e3d57611dc66001826126b7565b90506000611dd5600a886126a3565b611de090600a6127c4565b611dea90886126b7565b611df59060306127db565b905060008160f81b905080848481518110611e1257611e126127f4565b60200101906001600160f81b031916908160001a905350611e34600a896126a3565b97505050611db5565b50949350505050565b604051806101000160405280600081526020016000815260200160608152602001606081526020016060815260200160006005811115611e8857611e886120af565b815260006020820181905260409091015290565b634e487b7160e01b600052604160045260246000fd5b600082601f830112611ec357600080fd5b813567ffffffffffffffff80821115611ede57611ede611e9c565b604051601f8301601f19908116603f01168101908282118183101715611f0657611f06611e9c565b81604052838152866020858801011115611f1f57600080fd5b836020870160208301376000602085830101528094505050505092915050565b60008060408385031215611f5257600080fd5b82359150602083013567ffffffffffffffff811115611f7057600080fd5b611f7c85828601611eb2565b9150509250929050565b60005b83811015611fa1578181015183820152602001611f89565b50506000910152565b60008151808452611fc2816020860160208601611f86565b601f01601f19169290920160200192915050565b60208152815160208201526020820151604082015260006040830151610100806060850152612009610120850183611faa565b91506060850151601f19808685030160808701526120278483611faa565b935060808701519150808685030160a08701526120448483611faa565b935060a08701519150808685030160c08701526120618483611faa565b935060c08701519150808685030160e08701525061207f8382611faa565b92505060e085015181850152508091505092915050565b6000602082840312156120a857600080fd5b5035919050565b634e487b7160e01b600052602160045260246000fd5b600681106120e357634e487b7160e01b600052602160045260246000fd5b9052565b6020815281516020820152602082015160408201526000604083015161010080606085015261211a610120850183611faa565b91506060850151601f19808685030160808701526121388483611faa565b935060808701519150808685030160a0870152506121568382611faa565b92505060a085015161216b60c08601826120c5565b5060c08501516001600160a01b03811660e08601525060e0949094015192909301919091525090565b600080604083850312156121a757600080fd5b50508035926020909101359150565b80356001600160a01b03811681146121cd57600080fd5b919050565b600080600080600060a086880312156121ea57600080fd5b85359450602086013567ffffffffffffffff8082111561220957600080fd5b61221589838a01611eb2565b9550604088013591508082111561222b57600080fd5b61223789838a01611eb2565b9450606088013591508082111561224d57600080fd5b5061225a88828901611eb2565b925050612269608087016121b6565b90509295509295909350565b6020815281516020820152600060208301516080604084015261229b60a0840182611faa565b60408501516001600160a01b0316606085810191909152909401516080909301929092525090919050565b600080604083850312156122d957600080fd5b823591506122e9602084016121b6565b90509250929050565b600080600080600060a0868803121561230a57600080fd5b8535945060208601356006811061232057600080fd5b935061232e604087016121b6565b9250606086013567ffffffffffffffff8082111561234b57600080fd5b61235789838a01611eb2565b9350608088013591508082111561236d57600080fd5b5061237a88828901611eb2565b9150509295509295909350565b60006020808301818452808551808352604092508286019150828160051b87010184880160005b8381101561241a57603f198984030185528151606081518186526123d482870182611faa565b915050888201518582038a8701526123ec8282611faa565b915050878201519150848103888601526124068183611faa565b9689019694505050908601906001016123ae565b509098975050505050505050565b600181811c9082168061243c57607f821691505b60208210810361245c57634e487b7160e01b600052602260045260246000fd5b50919050565b601f8211156124ac57600081815260208120601f850160051c810160208610156124895750805b601f850160051c820191505b818110156124a857828155600101612495565b5050505b505050565b815167ffffffffffffffff8111156124cb576124cb611e9c565b6124df816124d98454612428565b84612462565b602080601f83116001811461251457600084156124fc5750858301515b600019600386901b1c1916600185901b1785556124a8565b600085815260208120601f198616915b8281101561254357888601518255948401946001909101908401612524565b50858210156125615787850151600019600388901b60f8161c191681555b5050505050600190811b01905550565b6f026b0b73ab330b1ba3ab932b210313c960851b81526000825161259c816010850160208701611f86565b9190910160100192915050565b6040815260006125bc6040830185611faa565b905060018060a01b03831660208301529392505050565b6000602082840312156125e557600080fd5b815180151581146125f557600080fd5b9392505050565b6020808252601c908201527f556e617574686f72697a65643a20496e636f727265637420726f6c6500000000604082015260600190565b60208082526024908201527f556e617574686f72697a65643a204e6f74207468652063757272656e7420686f604082015263363232b960e11b606082015260800190565b634e487b7160e01b600052601260045260246000fd5b634e487b7160e01b600052601160045260246000fd5b6000826126b2576126b2612677565b500490565b818103818111156107de576107de61268d565b6000600182016126dc576126dc61268d565b5060010190565b86815260018060a01b038616602082015284604082015260c06060820152600061271060c0830186611faa565b82810360808401526127228186611faa565b905082810360a08401526127368185611faa565b9998505050505050505050565b808201808211156107de576107de61268d565b60008261276557612765612677565b500690565b6000845161277c818460208901611f86565b8083019050602d60f81b808252855161279c816001850160208a01611f86565b600192019182015283516127b7816002840160208801611f86565b0160020195945050505050565b80820281158282048414176107de576107de61268d565b60ff81811683821601908111156107de576107de61268d565b634e487b7160e01b600052603260045260246000fdfea2646970667358221220e650fb9a27e67d7c6b4f9e53a707c35b2268960f1f86bb9dc04df3ae00b5f19964736f6c63430008140033",
  "linkReferences": {},
  "deployedLinkReferences": {}
}