{
  "_format": "hh-sol-artifact-1",
  "contractName": "GradingLab",
  "sourceName": "contracts/3.grading.sol",
  "abi": [
    {
      "inputs": [
        {
          "internalType": "address",
          "name": "_traceabilityNFTAddress",
          "type": "address"
        }
      ],
      "stateMutability": "payable",
      "type": "constructor"
    },
    {
      "inputs": [],
      "name": "owner",
      "outputs": [
        {
          "internalType": "address",
          "name": "",
          "type": "address"
        }
      ],
      "stateMutability": "view",
      "type": "function"
    },
    {
      "inputs": [],
      "name": "traceabilityNFT",
      "outputs": [
        {
          "internalType": "contract IDiamondTraceabilityNFT",
          "name": "",
          "type": "address"
        }
      ],
      "stateMutability": "view",
      "type": "function"
    },
    {
      "inputs": [
        {
          "internalType": "address",
          "name": "newOwner",
          "type": "address"
        }
      ],
      "name": "transferOwnership",
      "outputs": [],
      "stateMutability": "nonpayable",
      "type": "function"
    },
    {
      "inputs": [
        {
          "internalType": "uint256",
          "name": "outsidepwd",
          "type": "uint256"
        },
        {
          "internalType": "uint256",
          "name": "uniqueId",
          "type": "uint256"
        },
        {
          "internalType": "address",
          "name": "newHolder",
          "type": "address"
        },
        {
          "internalType": "string",
          "name": "operationName",
          "type": "string"
        },
        {
          "internalType": "string",
          "name": "remarks",
          "type": "string"
        }
      ],
      "name": "updateDiamondToGraded",
      "outputs": [],
      "stateMutability": "nonpayable",
      "type": "function"
    },
    {
      "stateMutability": "payable",
      "type": "receive"
    }
  ],
  "bytecode": "0x60806040526040516105ba3803806105ba83398101604081905261002291610057565b600080546001600160a01b039092166001600160a01b031992831617905560018054909116331790556201e240600255610087565b60006020828403121561006957600080fd5b81516001600160a01b038116811461008057600080fd5b9392505050565b610524806100966000396000f3fe6080604052600436106100435760003560e01c806366f242071461004f5780638da5cb5b1461008b578063d0417713146100ab578063f2fde38b146100cd57600080fd5b3661004a57005b600080fd5b34801561005b57600080fd5b5060005461006f906001600160a01b031681565b6040516001600160a01b03909116815260200160405180910390f35b34801561009757600080fd5b5060015461006f906001600160a01b031681565b3480156100b757600080fd5b506100cb6100c6366004610392565b6100ed565b005b3480156100d957600080fd5b506100cb6100e836600461041a565b610201565b6001546001600160a01b0316331461014c5760405162461bcd60e51b815260206004820152601b60248201527f556e617574686f72697a65643a204e6f7420746865206f776e6572000000000060448201526064015b60405180910390fd5b84806002540361018e5760405162461bcd60e51b815260206004820152600d60248201526c1ddc9bdb99c818dbdb9d1c9bdb609a1b6044820152606401610143565b6000546040516381f740bd60e01b81526001600160a01b03909116906381f740bd906101c7908890600290899089908990600401610482565b600060405180830381600087803b1580156101e157600080fd5b505af11580156101f5573d6000803e3d6000fd5b50505050505050505050565b6001546001600160a01b0316331461025b5760405162461bcd60e51b815260206004820152601b60248201527f556e617574686f72697a65643a204e6f7420746865206f776e657200000000006044820152606401610143565b6001600160a01b0381166102b15760405162461bcd60e51b815260206004820181905260248201527f4e6577206f776e65722063616e6e6f74206265207a65726f20616464726573736044820152606401610143565b600180546001600160a01b0319166001600160a01b0392909216919091179055565b80356001600160a01b03811681146102ea57600080fd5b919050565b634e487b7160e01b600052604160045260246000fd5b600082601f83011261031657600080fd5b813567ffffffffffffffff80821115610331576103316102ef565b604051601f8301601f19908116603f01168101908282118183101715610359576103596102ef565b8160405283815286602085880101111561037257600080fd5b836020870160208301376000602085830101528094505050505092915050565b600080600080600060a086880312156103aa57600080fd5b85359450602086013593506103c1604087016102d3565b9250606086013567ffffffffffffffff808211156103de57600080fd5b6103ea89838a01610305565b9350608088013591508082111561040057600080fd5b5061040d88828901610305565b9150509295509295909350565b60006020828403121561042c57600080fd5b610435826102d3565b9392505050565b6000815180845260005b8181101561046257602081850181015186830182015201610446565b506000602082860101526020601f19601f83011685010191505092915050565b8581526000600686106104a557634e487b7160e01b600052602160045260246000fd5b602082018690526001600160a01b038516604083015260a0606083018190526104d09083018561043c565b82810360808401526104e2818561043c565b9897505050505050505056fea264697066735822122010491201901179cf57079f980e9943c2687ffd4fae5e141bfffd33c6f64e1f6d64736f6c63430008140033",
  "linkReferences": {},
  "deployedLinkReferences": {}
}