{
  "_format": "hh-sol-artifact-1",
  "contractName": "JewelrySeller",
  "sourceName": "contracts/5.jseller.sol",
  "abi": [
    {
      "inputs": [
        {
          "internalType": "address",
          "name": "_traceabilityNFTAddress",
          "type": "address"
        }
      ],
      "stateMutability": "payable",
      "type": "constructor"
    },
    {
      "inputs": [
        {
          "internalType": "uint256",
          "name": "outsidepwd",
          "type": "uint256"
        },
        {
          "internalType": "uint256",
          "name": "uniqueId",
          "type": "uint256"
        },
        {
          "internalType": "string",
          "name": "manufacturer",
          "type": "string"
        }
      ],
      "name": "issueDiamondCertificate",
      "outputs": [],
      "stateMutability": "nonpayable",
      "type": "function"
    },
    {
      "inputs": [],
      "name": "owner",
      "outputs": [
        {
          "internalType": "address",
          "name": "",
          "type": "address"
        }
      ],
      "stateMutability": "view",
      "type": "function"
    },
    {
      "inputs": [
        {
          "internalType": "uint256",
          "name": "outsidepwd",
          "type": "uint256"
        },
        {
          "internalType": "uint256",
          "name": "uniqueId",
          "type": "uint256"
        },
        {
          "internalType": "address",
          "name": "buyer",
          "type": "address"
        }
      ],
      "name": "sellDiamond",
      "outputs": [],
      "stateMutability": "nonpayable",
      "type": "function"
    },
    {
      "inputs": [
        {
          "internalType": "uint256",
          "name": "outsidepwd",
          "type": "uint256"
        },
        {
          "internalType": "uint256",
          "name": "uniqueId",
          "type": "uint256"
        },
        {
          "internalType": "uint256",
          "name": "price",
          "type": "uint256"
        }
      ],
      "name": "setDiamondForSale",
      "outputs": [],
      "stateMutability": "nonpayable",
      "type": "function"
    },
    {
      "inputs": [],
      "name": "traceabilityNFT",
      "outputs": [
        {
          "internalType": "contract IDiamondTraceabilityNFT",
          "name": "",
          "type": "address"
        }
      ],
      "stateMutability": "view",
      "type": "function"
    },
    {
      "inputs": [
        {
          "internalType": "address",
          "name": "newOwner",
          "type": "address"
        }
      ],
      "name": "transferOwnership",
      "outputs": [],
      "stateMutability": "nonpayable",
      "type": "function"
    },
    {
      "inputs": [
        {
          "internalType": "uint256",
          "name": "outsidepwd",
          "type": "uint256"
        },
        {
          "internalType": "uint256",
          "name": "uniqueId",
          "type": "uint256"
        },
        {
          "internalType": "uint256",
          "name": "newPrice",
          "type": "uint256"
        }
      ],
      "name": "updateDiamondPrice",
      "outputs": [],
      "stateMutability": "nonpayable",
      "type": "function"
    },
    {
      "stateMutability": "payable",
      "type": "receive"
    }
  ],
  "bytecode": "0x608060405260405161097538038061097583398101604081905261002291610057565b600080546001600160a01b039092166001600160a01b031992831617905560018054909116331790556201e240600255610087565b60006020828403121561006957600080fd5b81516001600160a01b038116811461008057600080fd5b9392505050565b6108df806100966000396000f3fe6080604052600436106100745760003560e01c806386af6d5c1161004e57806386af6d5c146100fe5780638da5cb5b1461011e5780639d7882dc1461013e578063f2fde38b1461015e57600080fd5b806310c78f7814610080578063515f8494146100a257806366f24207146100c257600080fd5b3661007b57005b600080fd5b34801561008c57600080fd5b506100a061009b36600461054f565b61017e565b005b3480156100ae57600080fd5b506100a06100bd3660046105e2565b610253565b3480156100ce57600080fd5b506000546100e2906001600160a01b031681565b6040516001600160a01b03909116815260200160405180910390f35b34801561010a57600080fd5b506100a06101193660046105e2565b61030b565b34801561012a57600080fd5b506001546100e2906001600160a01b031681565b34801561014a57600080fd5b506100a061015936600461062a565b61038f565b34801561016a57600080fd5b506100a061017936600461065f565b610414565b6001546001600160a01b031633146101b15760405162461bcd60e51b81526004016101a890610681565b60405180910390fd5b8280600254036101d35760405162461bcd60e51b81526004016101a8906106b8565b6000546040516303205b7960e21b81526001600160a01b0390911690630c816de4906102059086908690600401610703565b6000604051808303816000875af1158015610224573d6000803e3d6000fd5b505050506040513d6000823e601f3d908101601f1916820160405261024c919081019061078a565b5050505050565b6001546001600160a01b0316331461027d5760405162461bcd60e51b81526004016101a890610681565b82806002540361029f5760405162461bcd60e51b81526004016101a8906106b8565b6000546040516382367b2d60e01b815260048101859052602481018490526001600160a01b03909116906382367b2d906044015b600060405180830381600087803b1580156102ed57600080fd5b505af1158015610301573d6000803e3d6000fd5b5050505050505050565b6001546001600160a01b031633146103355760405162461bcd60e51b81526004016101a890610681565b8280600254036103575760405162461bcd60e51b81526004016101a8906106b8565b600054604051630bfe7f1160e11b815260048101859052602481018490526001600160a01b03909116906317fcfe22906044016102d3565b6001546001600160a01b031633146103b95760405162461bcd60e51b81526004016101a890610681565b8280600254036103db5760405162461bcd60e51b81526004016101a8906106b8565b60005460405163633bea1560e01b8152600481018590526001600160a01b0384811660248301529091169063633bea15906044016102d3565b6001546001600160a01b0316331461043e5760405162461bcd60e51b81526004016101a890610681565b6001600160a01b0381166104945760405162461bcd60e51b815260206004820181905260248201527f4e6577206f776e65722063616e6e6f74206265207a65726f206164647265737360448201526064016101a8565b600180546001600160a01b0319166001600160a01b0392909216919091179055565b634e487b7160e01b600052604160045260246000fd5b604051610100810167ffffffffffffffff811182821017156104f0576104f06104b6565b60405290565b604051601f8201601f1916810167ffffffffffffffff8111828210171561051f5761051f6104b6565b604052919050565b600067ffffffffffffffff821115610541576105416104b6565b50601f01601f191660200190565b60008060006060848603121561056457600080fd5b8335925060208401359150604084013567ffffffffffffffff81111561058957600080fd5b8401601f8101861361059a57600080fd5b80356105ad6105a882610527565b6104f6565b8181528760208385010111156105c257600080fd5b816020840160208301376000602083830101528093505050509250925092565b6000806000606084860312156105f757600080fd5b505081359360208301359350604090920135919050565b80356001600160a01b038116811461062557600080fd5b919050565b60008060006060848603121561063f57600080fd5b83359250602084013591506106566040850161060e565b90509250925092565b60006020828403121561067157600080fd5b61067a8261060e565b9392505050565b6020808252601b908201527f556e617574686f72697a65643a204e6f7420746865206f776e65720000000000604082015260600190565b6020808252600d908201526c1ddc9bdb99c818dbdb9d1c9bdb609a1b604082015260600190565b60005b838110156106fa5781810151838201526020016106e2565b50506000910152565b82815260406020820152600082518060408401526107288160608501602087016106df565b601f01601f1916919091016060019392505050565b600082601f83011261074e57600080fd5b815161075c6105a882610527565b81815284602083860101111561077157600080fd5b6107828260208301602087016106df565b949350505050565b60006020828403121561079c57600080fd5b815167ffffffffffffffff808211156107b457600080fd5b9083019061010082860312156107c957600080fd5b6107d16104cc565b82518152602083015160208201526040830151828111156107f157600080fd5b6107fd8782860161073d565b60408301525060608301518281111561081557600080fd5b6108218782860161073d565b60608301525060808301518281111561083957600080fd5b6108458782860161073d565b60808301525060a08301518281111561085d57600080fd5b6108698782860161073d565b60a08301525060c08301518281111561088157600080fd5b61088d8782860161073d565b60c08301525060e083015160e08201528093505050509291505056fea26469706673582212209f2e280defcf529f7502f4bd76017634f9b3a62c55ad6d6f09a14b46dbd3c37064736f6c63430008140033",
  "linkReferences": {},
  "deployedLinkReferences": {}
}