{
  "_format": "hh-sol-artifact-1",
  "contractName": "MiningCompany",
  "sourceName": "contracts/1.MiningCompany.sol",
  "abi": [
    {
      "inputs": [
        {
          "internalType": "address",
          "name": "_traceabilityNFTAddress",
          "type": "address"
        }
      ],
      "stateMutability": "payable",
      "type": "constructor"
    },
    {
      "anonymous": false,
      "inputs": [
        {
          "indexed": true,
          "internalType": "address",
          "name": "previousOwner",
          "type": "address"
        },
        {
          "indexed": true,
          "internalType": "address",
          "name": "newOwner",
          "type": "address"
        }
      ],
      "name": "OwnershipTransferred",
      "type": "event"
    },
    {
      "inputs": [
        {
          "internalType": "uint256",
          "name": "outsidepwd",
          "type": "uint256"
        },
        {
          "internalType": "uint256",
          "name": "caratWeight",
          "type": "uint256"
        },
        {
          "internalType": "string",
          "name": "origin",
          "type": "string"
        },
        {
          "internalType": "string",
          "name": "color",
          "type": "string"
        },
        {
          "internalType": "string",
          "name": "clarity",
          "type": "string"
        },
        {
          "internalType": "address",
          "name": "nextHolder",
          "type": "address"
        }
      ],
      "name": "mineDiamond",
      "outputs": [
        {
          "internalType": "uint256",
          "name": "",
          "type": "uint256"
        }
      ],
      "stateMutability": "nonpayable",
      "type": "function"
    },
    {
      "inputs": [],
      "name": "owner",
      "outputs": [
        {
          "internalType": "address",
          "name": "",
          "type": "address"
        }
      ],
      "stateMutability": "view",
      "type": "function"
    },
    {
      "inputs": [],
      "name": "traceabilityNFT",
      "outputs": [
        {
          "internalType": "contract IDiamondTraceabilityNFT",
          "name": "",
          "type": "address"
        }
      ],
      "stateMutability": "view",
      "type": "function"
    },
    {
      "inputs": [
        {
          "internalType": "address",
          "name": "newOwner",
          "type": "address"
        }
      ],
      "name": "transferOwnership",
      "outputs": [],
      "stateMutability": "nonpayable",
      "type": "function"
    },
    {
      "stateMutability": "payable",
      "type": "receive"
    }
  ],
  "bytecode": "0x608060405260405161064538038061064583398101604081905261002291610057565b600080546001600160a01b039092166001600160a01b031992831617905560018054909116331790556201e240600255610087565b60006020828403121561006957600080fd5b81516001600160a01b038116811461008057600080fd5b9392505050565b6105af806100966000396000f3fe6080604052600436106100435760003560e01c806366f242071461004f5780638d729fc11461008c5780638da5cb5b146100ba578063f2fde38b146100da57600080fd5b3661004a57005b600080fd5b34801561005b57600080fd5b5060005461006f906001600160a01b031681565b6040516001600160a01b0390911681526020015b60405180910390f35b34801561009857600080fd5b506100ac6100a73660046103ad565b6100fc565b604051908152602001610083565b3480156100c657600080fd5b5060015461006f906001600160a01b031681565b3480156100e657600080fd5b506100fa6100f5366004610458565b6101fd565b005b6001546000906001600160a01b031633146101325760405162461bcd60e51b81526004016101299061047a565b60405180910390fd5b8680600254036101745760405162461bcd60e51b815260206004820152600d60248201526c1ddc9bdb99c818dbdb9d1c9bdb609a1b6044820152606401610129565b600080546040516356b0a97d60e01b81526001600160a01b03909116906356b0a97d906101ad908b908b908b908b908b90600401610506565b6020604051808303816000875af11580156101cc573d6000803e3d6000fd5b505050506040513d601f19601f820116820180604052508101906101f09190610560565b9998505050505050505050565b6001546001600160a01b031633146102275760405162461bcd60e51b81526004016101299061047a565b6001600160a01b0381166102925760405162461bcd60e51b815260206004820152602c60248201527f4d696e696e67436f6d70616e793a206e6577206f776e6572206973207468652060448201526b7a65726f206164647265737360a01b6064820152608401610129565b6001546040516001600160a01b038084169216907f8be0079c531659141344cd1fd0a4f28419497f9722a3daafe3b4186f6b6457e090600090a3600180546001600160a01b0319166001600160a01b0392909216919091179055565b634e487b7160e01b600052604160045260246000fd5b600082601f83011261031557600080fd5b813567ffffffffffffffff80821115610330576103306102ee565b604051601f8301601f19908116603f01168101908282118183101715610358576103586102ee565b8160405283815286602085880101111561037157600080fd5b836020870160208301376000602085830101528094505050505092915050565b80356001600160a01b03811681146103a857600080fd5b919050565b60008060008060008060c087890312156103c657600080fd5b8635955060208701359450604087013567ffffffffffffffff808211156103ec57600080fd5b6103f88a838b01610304565b9550606089013591508082111561040e57600080fd5b61041a8a838b01610304565b9450608089013591508082111561043057600080fd5b5061043d89828a01610304565b92505061044c60a08801610391565b90509295509295509295565b60006020828403121561046a57600080fd5b61047382610391565b9392505050565b60208082526026908201527f4d696e696e67436f6d70616e793a2063616c6c6572206973206e6f74207468656040820152651037bbb732b960d11b606082015260800190565b6000815180845260005b818110156104e6576020818501810151868301820152016104ca565b506000602082860101526020601f19601f83011685010191505092915050565b85815260a06020820152600061051f60a08301876104c0565b828103604084015261053181876104c0565b9050828103606084015261054581866104c0565b91505060018060a01b03831660808301529695505050505050565b60006020828403121561057257600080fd5b505191905056fea2646970667358221220f45fde0530af21d841cbc8178bc7f92b5c567139286abeaabde0d2e9340a5d7f64736f6c63430008140033",
  "linkReferences": {},
  "deployedLinkReferences": {}
}